:020000040800F2
:1000000000020020ED000008F3000008F5000008E1
:10001000F7000008F9000008FB00000800000000DD
:10002000000000000000000000000000FD000008CB
:10003000FF000008000000000101000803010008A3
:100040000501000805010008050100080501000878
:100050000501000805010008050100080501000868
:100060000501000805010008050100080501000858
:100070000501000805010008050100080501000848
:100080000501000805010008050100080501000838
:100090000501000805010008050100080501000828
:1000A0000501000805010008050100080501000818
:1000B0000501000805010008050100080501000808
:1000C00005010008050100080501000805010008F8
:1000D00005010008050100080501000805010008E8
:1000E00005010008050100080501000809480A4843
:1000F0000047FEE7FEE7FEE7FEE7FEE7FEE7FEE776
:10010000FEE7FEE7FEE7000004480549034A054B09
:100110007047000001300008610100080000002065
:10012000000200200000002020436F727465782DCB
:100130004D3320444953434F56455259202D3E20BC
:100140005553415254310A0D00203A73796D626F54
:100150006C2028524543454956454429200A0D0044
:1001600000F038F800F074F800F027F83E4800F08E
:1001700011F800F006F800F016F83C4800F00AF814
:10018000F7E706B53A490A6812F0200FFAD0394964
:10019000086806BD06B5014611F8010B10B100F064
:1001A00002F8F9E706BD06B531490A6812F0400FBA
:1001B000FAD0304908700A7806BD00B52E4840F6DE
:1001C000C41101602D48016842F20C0241EA0201AB
:1001D000016000BD2A48016821F4A021016028487F
:1001E000016841F480310160016811F4003FFBD0E7
:1001F0002448016821F0F0010160016821F4605198
:100200000160016821F4E06141F4806101601D48F2
:10021000016821F47C111C4A41EA020101601B487B
:100220004FF00101016016480168016811F0007F7C
:10023000FBD01448016821F0030141F00201016084
:100240001348016844F2150241EA02010160704757
:100250004FF0F0020F48016821EA02014FF0B002AE
:1002600041EA0201016070472801000849010008C5
:100270000038014004380140083801400C38014082
:1002800000100240041002400004050060004242D9
:080290001810024004080140AF
:04000005080000ED02
:00000001FF
